:100000000C9434000C9453000C9451000C94510047
:100010000C9451000C9451000C9451000C941D014F
:100020000C9451000C9451000C9451000C9451000C
:100030000C9451000C9451000C9451000C945100FC
:100040000C9451000C9451000C9451000C945100EC
:100050000C9451000C9451000C9451000C945100DC
:100060000C9451000C94510011241FBECFEFD8E026
:10007000DEBFCDBF11E0A0E0B1E0ECEAF2E002C0EB
:1000800005900D92AC31B107D9F721E0ACE1B1E0B8
:1000900001C01D92A732B207E1F70E9440010C9403
:1000A00054010C9400008F938FB78F939F9380918E
:1000B0001C0191E0892780931C019F918F918FBF34
:1000C0008F911895CF93C82F8A3019F48DE00E9434
:1000D00062008091C00085FFFCCFC093C60080E025
:1000E00090E0CF9108958091C00087FFFCCF809170
:1000F000C60090E008951092C50083E38093C40089
:10010000E0ECF0E080818D7F808386E08093C20008
:1001100088E18093C10008950E947B00E1E2F1E054
:100120008EE091E09383828380E091E091838083ED
:10013000089582E08093B00094E09093B1008093A2
:10014000700089EF8093B3000895CF93DF9300D0C0
:1001500000D0CDB7DEB78FB7F89420911D01309154
:100160001E0140911F015091200129833A834B8346
:100170005C838FBF69817A818B819C810F900F9006
:100180000F900F90DF91CF910895E4E6F0E0808129
:100190008F7B8083E0E7F0E0808182608083089538
:1001A000E0E7F0E080818D7F8083E4E6F0E080810D
:1001B0008064808308958FB7F89410921D01109287
:1001C0001E0110921F01109220018FBF0895462F2B
:1001D000572FBC012FB7F89480911D0190911E01FB
:1001E000A0911F01B0912001840F951FA61FB71F7A
:1001F00080931D0190931E01A0931F01B0932001D5
:100200002FBF0895462F572FBC012FB7F894809128
:100210001D0190911E01A0911F01B0912001841B2E
:10022000950BA60BB70B80931D0190931E01A09315
:100230001F01B09320012FBF08951F921FB61F9278
:1002400011248F939F93AF93BF9380911D01909141
:100250001E01A0911F01B09120010196A11DB11DA9
:1002600080931D0190931E01A0931F01B093200164
:10027000BF91AF919F918F911F901FBE1F901895B6
:100280000E948C0080916900816080936900E89AE7
:100290007894209A52985A9A80911C01882311F0E0
:0C02A000289AFACF2898F8CFF894FFCFE6
:1002AC0000000001000000000000730000000000CE
:0C02BC00000200000000620000000000D2
:00000001FF
