:100000000C9434000C9451000C9451000C94510049
:100010000C9451000C9451000C9451000C944A0122
:100020000C9451000C9461000C9451000C945100FC
:100030000C9451000C9451000C9451000C945100FC
:100040000C9451000C9451000C9451000C945100EC
:100050000C9451000C9451000C9451000C945100DC
:100060000C9451000C94510011241FBECFEFD8E026
:10007000DEBFCDBF11E0A0E0B1E0E4E3F9E002C0F3
:1000800005900D92A032B107D9F721E0A0E2B1E0CE
:1000900001C01D92A133B207E1F70E946D010C94DB
:1000A00098040C9400008F718F3129F0882331F06F
:1000B00082E090E0089580E090E0089581E090E093
:1000C00008952F932FB72F938F939F9385E080935D
:1000D000B20083B190912401990F909324019091E3
:1000E00024018695817021E08227892B8093240149
:1000F0009F918F912F912FBF2F9118951092B00043
:10010000E1EBF0E0108280818760808385E080935E
:10011000B200E0E7F0E08081816080830895CF93B2
:10012000C82F8A3019F48DE00E948F008091C000A2
:1001300085FFFCCFC093C60080E090E0CF9108958A
:100140008091C00087FFFCCF8091C60090E00895A9
:100150001092C50083E38093C400E0ECF0E080815E
:100160008D7F808386E08093C20088E18093C10008
:1001700008950E94A800EBE2F1E08EE091E0938305
:10018000828380E091E091838083089582E0809370
:10019000B00094E09093B1008093700089EF809359
:1001A000B3000895CF93DF9300D000D0CDB7DEB772
:1001B0008FB7F894209127013091280140912901AF
:1001C00050912A0129833A834B835C838FBF6981D5
:1001D0007A818B819C810F900F900F900F90DF910F
:1001E000CF910895E4E6F0E080818F7B8083E0E7A3
:1001F000F0E08081826080830895E0E7F0E0808114
:100200008D7F8083E4E6F0E08081806480830895C0
:100210008FB7F894109227011092280110922901AB
:1002200010922A018FBF0895462F572FBC012FB778
:10023000F8948091270190912801A0912901B09113
:100240002A01840F951FA61FB71F80932701909343
:100250002801A0932901B0932A012FBF0895462FAA
:10026000572FBC012FB7F894809127019091280156
:10027000A0912901B0912A01841B950BA60BB70B05
:100280008093270190932801A0932901B0932A011C
:100290002FBF08951F921FB61F9211248F939F9313
:1002A000AF93BF938091270190912801A0912901DC
:1002B000B0912A010196A11DB11D80932701909351
:1002C0002801A0932901B0932A01BF91AF919F917A
:1002D0008F911F901FBE1F9018950E94B9000E9419
:1002E000C6007894229A2198299A00E011E0BB2454
:1002F000B3948CE1C82E81E0D82E809124010E9415
:1003000053000097E1F00023E9F00197D9F41B2591
:10031000E701219600E0199B1B25EC16FD0651F024
:10032000DF93CF93DF92CF920E94A6010F900F90A0
:100330000F900F90112341F02A9A7E01DECFE70142
:1003400001E0E9CFE701E7CF2A98F7CFA0E0B0E0DE
:10035000ECEAF1E00C947104AE014B5F5F4FFA01DF
:1003600061917191AF0180912D0190912E010E94B8
:10037000BC01E2E00C948D04AFE0B0E0E2ECF1E00F
:100380000C9464046C017B018A01DC0117961C92B9
:100390001E92169713968C9181FFECC12AE0522E83
:1003A000F6019381F70193FD859193FF81917F0180
:1003B000882309F473C0853239F493FD859193FF46
:1003C00081917F01853229F4B60190E00E94D30328
:1003D000E7CF912C612C712CFFE1F71508F446C092
:1003E0008B32C9F1F8F48032C1F1833209F43BC099
:1003F000833609F48AC0833709F493C0833509F042
:10040000B6C0F801A190B1908F01692D70E076FC23
:1004100002C06FEF7FEFC5010E94BD034C016894DD
:1004200077F85FC08D32E1F0803351F020ED280F76
:100430002A3048F18E3209F039C0689476F802C04B
:10044000689470F8F70193FD859193FF81917F0186
:100450008111C2CF33C0689471F8689472F8F2CFFA
:10046000689473F8EFCF689474F8ECCF77FC26C0EB
:1004700020ED280F2A3070F476FE05C0959C200DE3
:100480001124922EDFCF659C200D1124622E6894DA
:1004900075F8D8CF8E3251F476FECFCFD6011696AE
:1004A0008D919C912F96EFE00C9480048C3619F47A
:1004B000689477F8C7CF883609F4C4CF982F9F7D0A
:1004C0009554933008F094CF0C5F1F4F8FE38983CE
:1004D00088248394912CAE014F5F5F4F5A01E894BA
:1004E00077F873FC05C0862D90E08816990640F1D8
:1004F0008114910461F5662009F452CFB60180E2BF
:1005000090E00E94D3036A94F6CFD8018C9189833E
:100510000E5F1F4F88248394912CFE0131965F015A
:10052000DECFD801AD90BD908D01692D70E076FCD5
:1005300002C06FEF7FEFC5010E94C8034C01CFCF0F
:10054000B60180E290E00E94D3036A94CCCFF5011B
:1005500077FC859177FE81915F01B60190E00E9462
:10056000D30361106A94F1E08F1A9108C1CF8436E9
:1005700019F0893609F081C0F80177FE77C06191E2
:100580007191819191918F01272D2F76822E97FF66
:1005900009C090958095709561957F4F8F4F9F4FC3
:1005A000689487F82AE030E0AE014F5F5F4F5A0150
:1005B0000E9403048A19A82EBA2C782C86FE0CC03F
:1005C000E89470F8A91440F484FE05C082FC03C0CE
:1005D000782D7E7E772EB92C74FEA5C0FE01EA0D23
:1005E000F11D8081803309F097C0872D897E782E98
:1005F00073FC0EC070FEA6C09A2CB61418F4960CAC
:100600009B18B62C862D8B196B1408F480E0B80E5D
:10061000B61408F099C06B1874FE98C0B60180E358
:1006200090E00E94D30372FE09C088E590E071FC5F
:1006300002C088E790E0B6010E94D303A91408F431
:1006400092C0AA94B12C9FEFA91AB90ADE011196A3
:100650004D01AA0EBB1EF50182915F01B60190E02B
:100660000E94D3038A149B04B1F745CF6191719125
:10067000072E000C880B990B86CF872CE89484F802
:100680002AE030E0853769F0572D597F852E803775
:1006900071F118F5883571F18F3609F0FFCE28E039
:1006A00030E0F80187FE2EC081919191A191B19126
:1006B0008C879D87AE87BF878F01BE016F5F7F4F9D
:1006C0005B01AB016C857D858E859F850E9403044F
:1006D0008A19A82EE89487F86FCF883709F0DECE04
:1006E00084FE02C0689482F820E130E0DACF68949A
:1006F00084F8F6CF74FE03C0652F6660862E20E175
:1007000032E0CFCF81919191AC0160E070E04C87F5
:100710005D876E877F87D0CF72FC02C0B39468CFAD
:10072000B394B39465CF872D8678882309F460CF7E
:10073000F5CFB60180E290E00E94D3038394861443
:10074000C0F360CF8B2CFBCF612C66CF872D8678D2
:10075000882309F473CF8BE271FE80E277FC8DE28F
:10076000B60190E069CFB60180E390E00E94D30328
:100770009A9464CF8FEF9FEF95CEFC010590615066
:1007800070400110D8F7809590958E0F9F1F0895A7
:10079000FC016150704001900110D8F78095909550
:1007A0008E0F9F1F08950F931F93CF93DF93182FE2
:1007B000092FEB018B8181FD09C01FEF0FEF812F06
:1007C000902FDF91CF911F910F91089582FF14C058
:1007D0002E813F818C819D81281739073CF4E88167
:1007E000F981CF0101969983888310838E819F813F
:1007F00001969F838E83E3CFE885F985812F099544
:10080000892BA1F3DACFFA01AA27283051F1203140
:1008100081F1E8946F936E7F6E5F7F4F8F4F9F4F94
:10082000AF4FB1E03ED0B4E03CD0670F781F891FD6
:100830009A1FA11D680F791F8A1F911DA11D6A0FA4
:10084000711D811D911DA11D20D009F468943F9157
:100850002AE0269F11243019305D3193DEF6CF0156
:100860000895462F4770405D4193B3E00FD0C9F71C
:10087000F6CF462F4F70405D4A3318F0495D31FD89
:100880004052419302D0A9F7EACFB4E0A6959795DC
:10089000879577956795BA95C9F7009761057105B2
:1008A00008959B01AC010A2E0694579547953795FC
:1008B0002795BA95C9F7620F731F841F951FA01D56
:1008C00008952F923F924F925F926F927F928F92F4
:1008D0009F92AF92BF92CF92DF92EF92FF920F93CF
:1008E0001F93CF93DF93CDB7DEB7CA1BDB0B0FB6D9
:1008F000F894DEBF0FBECDBF09942A883988488896
:100900005F846E847D848C849B84AA84B984C8842B
:10091000DF80EE80FD800C811B81AA81B981CE0F22
:10092000D11D0FB6F894DEBF0FBECDBFED01089507
:04093000F894FFCF69
:1009340000000001000000000000A0000000000012
:100944000002000000008F000000000025640A007F
:00000001FF
