:100000000C9434000C9451000C9451000C94510049
:100010000C9451000C9451000C9451000C940E015E
:100020000C9451000C9451000C9451000C9451000C
:100030000C9451000C9451000C9451000C945100FC
:100040000C9451000C9451000C9451000C945100EC
:100050000C9451000C9451000C9451000C945100DC
:100060000C9451000C94510011241FBECFEFD8E026
:10007000DEBFCDBF11E0A0E0B1E0E8EAF2E002C0EF
:1000800005900D92AC31B107D9F721E0ACE1B1E0B8
:1000900001C01D92A632B207E1F70E9431010C9413
:1000A00052010C940000CF93C82F8A3019F48DE0D0
:1000B0000E9453008091C00085FFFCCFC093C60012
:1000C00080E090E0CF9108958091C00087FFFCCF41
:1000D0008091C60090E008951092C50083E380935C
:1000E000C400E0ECF0E080818D7F808386E0809327
:1000F000C20088E18093C10008950E946C00E0E294
:10010000F1E08EE091E09383828380E091E091833F
:100110008083089582E08093B00094E09093B100D2
:100120008093700089EF8093B3000895CF93DF939D
:1001300000D000D0CDB7DEB78FB7F89420911C0166
:1001400030911D0140911E0150911F0129833A8376
:100150004B835C838FBF69817A818B819C810F90F7
:100160000F900F900F90DF91CF910895E4E6F0E0AB
:1001700080818F7B8083E0E7F0E0808182608083F4
:100180000895E0E7F0E080818D7F8083E4E6F0E091
:1001900080818064808308958FB7F89410921C0149
:1001A00010921D0110921E0110921F018FBF089521
:1001B000462F572FBC012FB7F89480911C019091C6
:1001C0001D01A0911E01B0911F01840F951FA61F54
:1001D000B71F80931C0190931D01A0931E01B09343
:1001E0001F012FBF0895462F572FBC012FB7F8943A
:1001F00080911C0190911D01A0911E01B0911F01E1
:10020000841B950BA60BB70B80931C0190931D01CB
:10021000A0931E01B0931F012FBF08951F921FB618
:100220001F9211248F939F93AF93BF9380911C01D2
:1002300090911D01A0911E01B0911F010196A11D79
:10024000B11D80931C0190931D01A0931E01B093DA
:100250001F01BF91AF919F918F911F901FBE1F9063
:1002600018950E947D000E948A007894229A219815
:10027000299A199915C02FEF81EE94E02150804002
:100280009040E1F700C000002A9A1999FDCF2FEFA6
:1002900081EE94E0215080409040E1F700C00000E2
:0802A0002A98E7CFF894FFCF84
:1002A80000000001000000000000640000000000E1
:0C02B800000200000000530000000000E5
:00000001FF
